:020000040800F2
:1000000060390020C90D0008890300088B0300082F
:10001000990300089D030008A103000800000000E8
:10002000000000000000000000000000A503000820
:10003000A703000800000000A9030008E10D000864
:10004000E30D0008E30D0008E30D0008E30D0008D0
:10005000E30D0008E30D0008E30D0008E30D0008C0
:10006000E30D0008E30D0008E30D0008E30D0008B0
:10007000E30D0008E30D0008E30D0008E30D0008A0
:10008000E30D0008E30D0008E30D0008E30D000890
:10009000E30D0008E30D0008E30D0008E30D000880
:1000A000E30D0008E30D0008E30D0008E30D000870
:1000B000E30D0008E30D0008E30D0008E30D000860
:1000C000E30D0008E30D0008E30D0008E30D000850
:1000D000E30D0008930B0008E30D0008E30D000892
:1000E000E30D0008E30D0008E30D0008E30D000830
:1000F000E30D0008E30D0008E30D0008E30D000820
:10010000E30D0008E30D0008AD070008E30D00084B
:10011000E30D0008E30D0008E30D0008E30D0008FF
:10012000E30D0008E30D0008E30D0008E30D0008EF
:10013000E30D0008E30D0008E30D0008E30D0008DF
:10014000E30D0008E30D0008E30D0008E30D0008CF
:10015000E30D0008E30D0008E30D0008E30D0008BF
:10016000E30D0008E30D0008E30D0008E30D0008AF
:10017000E30D0008E30D0008E30D0008E30D00089F
:10018000E30D0008E30D000800F002F800F05CF851
:100190000AA090E8000C82448344AAF10107DA45E2
:1001A00001D100F051F8AFF2090EBAE80F0013F0D8
:1001B000010F18BFFB1A43F00103184780380000F5
:1001C000A03800000A444FF0000C10F8013B13F077
:1001D000070408BF10F8014B1D1108BF10F8015BA0
:1001E000641E05D010F8016B641E01F8016BF9D193
:1001F00013F0080F1EBF10F8014BAD1C0C1B09D1EA
:100200006D1E58BF01F801CBFAD505E014F8016B5B
:1002100001F8016B6D1EF9D59142D6D370470000ED
:100220000023002400250026103A28BF78C1FBD8FF
:10023000520728BF30C148BF0B6070471FB503F09D
:10024000F6FA1FBD10B510BD03F0B7FA1146FFF75F
:10025000F5FF00F02BF803F0D5FA03B4FFF7F2FF37
:1002600003BC03F0DDFA000030BF72B6704762B61F
:10027000704780F30888704700B589B01C2233A10D
:1002800002A803F01CFA38A0006801901C2202A901
:10029000364803F0CFF93548BDF8041041864022B6
:1002A0000146334800F080FB09B000BDC2B0002019
:1002B00041904FF4807101A803F055FA4FF4A0600B
:1002C00000F0A2FD4FF4E13000F0F8FB00F0FAF985
:1002D00000F0AEF900F0C4F900F072F900F0D8F9BE
:1002E00040222249224800F091FB204890F8320039
:1002F000FF2804D01D4890F83300FF2805D1FFF7F0
:10030000BBFF1C481C49086004E01A2201A91848D8
:1003100000F07CFB4FF48071184800F0CDFE18B956
:1003200000F0A2FB02F064FE00201549086004E022
:1003300013480068401C12490860114800681149C0
:100340008842F5D301E003F00EF9FCE7303130319B
:100350003033303131303032303130303030303095
:10036000303030303030303501010000B001002035
:1003700000C0000880841E0004030020000C02401E
:1003800000000020808D5B00704704E00748007883
:10039000401C06490870F9E700BFFEE700BFFEE712
:1003A00000BFFEE770477047704700000400002060
:1003B0000CB50020019000907648006840F4803031
:1003C0007449086000BF7348006800F40030009072
:1003D0000198401C0190009818B90198B0F5A04F01
:1003E000F1D16C48006800F4003010B10120009099
:1003F00001E0002000900098012846D16548403077
:10040000006840F0805063494031086062480068ED
:1004100040F44040604908605E48083000685D492B
:10042000083108600846006840F40040086008464B
:10043000006840F4A05008605848091F0860081F71
:10044000006840F08070091F086000BF51480068D4
:1004500000F000700028F9D040F2057050490860A3
:100460004C480830006820F003004A490831086011
:100470000846006840F00200086000BF45480830A8
:10048000006800F00C000828F8D10CBD10B54548F4
:10049000006840F47000434908603E48006840F03E
:1004A00001003C49086000203A4908310860394899
:1004B00000683D490840374908603C48091D08600C
:1004C000081F006820F48020091F086000203149BF
:1004D0000C310860FFF76CFF4FF000603149803944
:1004E000086010BD70B50020002202230024022104
:1004F000284D08352D6805F00C0020B1042806D0E1
:10050000082834D107E02A4D2A4E356033E02A4DC1
:10051000284E35602FE01F4D2D1D2D68C5F38054EA
:100520001C4D2D1D2D6805F03F0154B1224DB5FB2A
:10053000F1F5184E361D3668C6F3881605FB06F22F
:1005400009E01B4DB5FBF1F5124E361D3668C6F3BA
:10055000881605FB06F20F4D2D1D2D68C5F30145CC
:100560006D1C6B00B2FBF3F5124E356003E0104DCD
:10057000104E356000BF00BF064D08352D68C5F32D
:1005800003150E4E705D0B4D2D68C540094E35604C
:1005900070BD000000380240007000400854400761
:1005A000003C024088ED00E0FFFFF6FE1030002422
:1005B0000024F4000800002000127A000C00002043
:1005C0001CB50121162001F0DDF901208DF8040091
:1005D00002208DF8050000208DF806008DF8070038
:1005E0004FF4C040009069468D4800F003FD4FF481
:1005F0008070009069468B4800F0FCFC0120009060
:100600006946894800F0F6FC4FF48041844800F0C8
:100610006DFD4FF40051824800F06AFD01218248CF
:1006200000F064FD4FF480717E4800F05FFD1CBD5A
:100630001CB50121022001F0A5F900208DF804006D
:1006400002208DF8050000208DF8060001208DF8AD
:100650000700082000906946724800F0CBFC1CBDE2
:100660001CB50121082001F08DF900208DF804004F
:1006700002208DF8050000208DF8060001208DF87D
:100680000700000200906946684800F0B3FC1CBDFA
:100690001CB50121084601F075F901208DF8040010
:1006A00002208DF8050000208DF806008DF8070067
:1006B0000420009069465E4800F09CFC00205D49E3
:1006C00008601CBD1CB50121102001F05BF9012060
:1006D0008DF8040000208DF8060003208DF8050039
:1006E00001208DF807000002009069464E4800F096
:1006F00081FC4FF480714C4800F0F8FC4FF400701E
:1007000000906946484800F075FC4FF40071464877
:1007100000F0ECFC1CBD10B54748007850B94FF410
:100720008071414800F0E2FC4FF400713E4800F057
:10073000DDFC09E04FF480713B4800F0D9FC4FF438
:100740000071394800F0D4FC3B480078C0433A4976
:10075000087010BD7FB505460C460121082001F048
:100760005AF90295ADF804400020ADF80600ADF846
:100770000C0001A9314801F006FB012211462F4867
:1007800001F0A2FF01212D4801F086FB32208DF8F7
:10079000000000208DF8010005208DF802000120E6
:1007A0008DF80300684600F034FB7FBD10B50121D1
:1007B000224801F0A0FF012804D1214800686430DC
:1007C0001F49086001211D4801F0A6FF10BD1C4A09
:1007D00011681C4A1268881A1A4A11607047154835
:1007E0000068C0431849C1F88802704710B5044634
:1007F000012C08D181030A4800F078FC6103084805
:1008000000F076FC0AE04CB94FF48041044800F057
:100810006FFC4FF40051024800F068FC10BD00006E
:10082000000802400004024000100240000C024098
:10083000000002408802404224000020000C0040DA
:10084000200000201C0000200000404201460868F3
:10085000704701464848814201D20020704747480E
:10086000814201D20820F9E74548814201D2102097
:10087000F4E74448814201D21820EFE74248814220
:1008800001D22020EAE74148814201D22820E5E751
:100890003F48814201D23020E0E73E48814201D208
:1008A0003820DBE73C48814201D24020D6E73B4874
:1008B000814201D24820D1E73948814201D25020FB
:1008C000CCE75820CAE72DE9F04704460E46174604
:1008D0004FF009080025A946B4F1006F02D304F0D7
:1008E000030008B1BDE8F08702F030F8002002F004
:1008F00010F8254604EB87092A48854215D211E0F5
:100900002846FFF7A3FF401C58B12846FFF7A1FF78
:100910008246022102F06EF88046B8F1090F01D03C
:1009200002E02D1D4D45EBD300BFB8F1090F0CD1EE
:1009300008E02046316802F076F9092800D003E08B
:10094000241D361D4C45F4D300BF012001F0E1FF0A
:1009500002F009F800BFC5E730B503460C4615465E
:10096000002206E01846FFF771FF44F822001B1D25
:10097000521CAA42F6D330BD004000080080000897
:1009800000C0000800000108000002080000040880
:10099000000006080000080800000A0800000C0813
:1009A00000000E080000FF1F2DE9F05F0746884693
:1009B00091460025BB464446AA461DE0E07806065F
:1009C000A07846EA0046607846EA0026207806438A
:1009D000241D2846691C8DB2334941F82060B5F5C5
:1009E000007F07D100254FF400725846FFF76BFFD8
:1009F0000BF5006B0AF1040ACA45DFD325B12A467C
:100A000029495846FFF75FFFBDE8F09F2DE9F05FE9
:100A10000746884616460024BA464546301D4FEA2A
:100A2000900B5A4621495046FFF796FFA14617E022
:100A30001E4810F8240028701C4830F82400000AD2
:100A400068701A4850F82400000CA870174850F835
:100A50002400000EE8702D1D601C84B209F1040909
:100A6000B145E5D3BDE8F09F00B5A1B0802101A854
:100A700002F079FE802201A90D48FFF795FF21B011
:100A800000BD10B5044620680A490840B0F1005F77
:100A900008D16068084908602068FFF7EAFB06484B
:100AA0000068804710BD000018030020180B0020CC
:100AB000008000080000FE2F2800002010B588B03C
:100AC00004460121084600F05DFF0121102000F0DE
:100AD000B3FF07220921B04800F017FB07220A21C3
:100AE000AD4800F012FB4FF4C060069002208DF874
:100AF0001C008DF81D0000208DF81E0001208DF8CF
:100B00001F0006A9A44800F075FA02940020ADF871
:100B10000C00ADF80E00ADF81000ADF814000C207C
:100B2000ADF8120002A99D4800F08FFB01219B48FF
:100B300000F013FC012240F22551984800F0C3FC5C
:100B400025208DF8040003208DF805008DF806009F
:100B500001208DF8070001A800F05BF908B010BD76
:100B600070B505460E4640218C4800F0DEFC00249E
:100B70000CE0295D894800F01BFC00BF402187483C
:100B800000F0C6FC0128F9D1601CC4B2B442F0DB0D
:100B900070BD2DE9F041002600274FF48071804898
:100BA00000F08AFA18B9FFF75FFF02F021FA40F26D
:100BB00025517A4800F0C2FC00287DD040F2255132
:100BC000764800F0F6FC754800F0F6FBC4B27548B4
:100BD0000078062811D2DFE800F003111F2B419D99
:100BE000EB2C0AD1704801880088401C6E4A1080A6
:100BF0006E48445401206B490870C1E0902C0AD122
:100C0000694801880088401C674A1080674844543E
:100C1000022064490870B3E0634801880088401CE2
:100C2000614A10806148445403205E490870A7E07F
:100C30005D4801880088401C5B4A10805B48445432
:100C400080785B4908805948C078097800EB01201A
:100C50005749088004205349087091E052480188A0
:100C60000088401C504A1080504844548078032823
:100C700029D14E48C078012825D14C480079012857
:100C800021D11A224B494C48FFF7C0FE2D2049497B
:100C9000091F88700120C8702E214648801E02F06E
:100CA00074F905464348001F80F830503121FFF7A2
:100CB00057FF00203B4900E063E008703A49088094
:100CC0003B49088016E039488078032812D137481C
:100CD000C07802280ED13548007902280AD10621B1
:100CE0003648FFF73DFF00202E4908702E49088046
:100CF0002F490880042C01D0062C03D10520294956
:100D0000087006E000202749087027490880284914
:100D1000088035E0244801880088401C224A108061
:100D2000224844541046018821480088401D8142D1
:100D300025D1FFF7F0FC1E480088801C81B21B48BB
:100D4000801C02F022F91E490870184918480088D2
:100D5000001D085C1A490978884202D1012019490E
:100D6000087012480079062802D101201549087040
:100D700000200C4908700C4908800D49088000BF0C
:100D800000BFBDE8F08170B504460D460121204644
:100D9000FFF7E6FE70BD00000000024000100140B9
:100DA000000C02409F0000202C000020181300209F
:100DB000320000203900002000C000089900002007
:100DC00034000020300000200948804709480047CF
:100DD000FEE7FEE7FEE7FEE7FEE7FEE7FEE7FEE7EB
:100DE000FEE7FEE704480549054A064B7047000048
:100DF0008D04000889010008602D00206039002062
:100E0000603100206031002032490143324A1160D4
:100E1000704770B5002100230F22C4781CB32E4CFC
:100E2000246804F4E064C4F5E064C4F30721C1F16C
:100E30000404E3B20A4144789C40E1B2847814404F
:100E400021430C07210E254C05786155047804F0E8
:100E50001F050124AC4005786D11AD0005F1E025BA
:100E6000C5F8004109E0047804F01F050124AC40F6
:100E70001B4D0678761145F8264070BD194A0A4088
:100E80000243154B1B1F1A60704739B1124A121DDD
:100E900012680243104B1B1D1A6006E00E4A121D19
:100EA000126882430C4B1B1D1A607047042808D13E
:100EB0004FF0E021096941F004014FF0E022116197
:100EC00007E04FF0E021096921F004014FF0E02232
:100ED000116170470000FA050CED00E000E400E04D
:100EE00080E100E080FFFF1F10B50446984884426F
:100EF00008D10121084600F0B0FD0021012000F0DA
:100F0000ACFD76E09348844208D10121022000F034
:100F1000A4FD0021022000F0A0FD6AE08E4884427A
:100F200008D10121042000F098FD0021042000F0E8
:100F300094FD5EE08948844208D10121082000F038
:100F40008CFD0021082000F088FD52E08448844296
:100F500008D10121102000F080FD0021102000F0B8
:100F60007CFD46E07F48844208D10121202000F02A
:100F700074FD0021202000F070FD3AE07A488442A0
:100F800008D10121402000F068FD0021402000F040
:100F900064FD2EE07548844208D10121802000F0D4
:100FA0005CFD0021802000F058FD22E07048844262
:100FB00008D10121801500F050FD0021A01500F09E
:100FC0004CFD16E06B48844208D10121401500F029
:100FD00044FD0021601500F040FD0AE066488442AF
:100FE00007D10121001500F038FD0021201500F087
:100FF00034FD10BDF0B50A4600210023002400BFD7
:101000003DE0012505FA01F3156805EA03049C4259
:1010100034D105684F000326BE40B54305601579FD
:101020004E00B5400668354305601579012D02D0A4
:101030001579022D16D185684F000326BE40B543B1
:10104000856055794E00B5408668354385604568B2
:1010500001268E40B5434560456896798E40B6B20C
:1010600035434560C5684F000326BE40B543C560A3
:10107000D5794E00B540C6683543C560491C102976
:10108000BFD3F0BD4FF6FF710160002101714171C6
:101090008171C171704708B54FF480320092009A97
:1010A0000A430092009AC261C161009AC261C2699A
:1010B0000092C269009208BD0246002013690B40ED
:1010C0000BB1012000E0002070470146086980B2A2
:1010D00070470246002053690B400BB1012000E02D
:1010E000002070470146486980B27047018370470D
:1010F000418370470AB1018300E041837047416139
:10110000704742694A4042617047F0B500230024AD
:101110004D07ED0E02FA05F3CE1000F1200555F84B
:1011200026504E07F70E0F26BE40B543CF1000F1F4
:10113000200646F82750CE1000F1200555F826501D
:1011400045EA0304CE1000F1200545F82640F0BD25
:10115000000002400004024000080240000C02406F
:10116000001002400014024000180240001C02401F
:1011700000200240002402400028024010B504462E
:10118000FA48844208D10121102000F0AAFC002175
:10119000102000F0A6FC57E0F548844209D1012157
:1011A000480400F08DFC00214FF4003000F088FC72
:1011B0004AE0F048844209D10121880400F080FC13
:1011C00000214FF4802000F07BFC3DE0EA4884429F
:1011D00009D10121C80400F073FC00214FF4002064
:1011E00000F06EFC30E0E548844209D10121080599
:1011F00000F066FC00214FF4801000F061FC23E059
:10120000DF48844208D10121202000F06AFC00213F
:10121000202000F066FC17E0DA48844209D1012161
:10122000880700F04DFC00214FF0804000F048FCA2
:101230000AE0D548844207D10121400500F040FC76
:101240000021600500F03CFC10BD2DE9FF4705467C
:101250000E460024A14600BFA046B08900B100BFE1
:101260002C8A24F44054F08804432C82AC8941F247
:101270000C608443B0883189084371890843044372
:10128000AC81AC8A24F44074B0890443AC826846D3
:1012900000F0A7FAB548854202D0B948854202D18C
:1012A000DDF80C9001E0DDF80890A88900F400401A
:1012B00040B109EBC90000EB091031684900B0FBEF
:1012C000F1F707E009EBC90000EB0910316889006C
:1012D000B0FBF1F76420B7FBF0F0040120096421B2
:1012E00001FB1078A88900F4004040B1322000EBE7
:1012F000C800B0FBF1F000F00700044308E0322022
:1013000000EB08106421B0FBF1F000F00F00044383
:101310002C81BDE8FF874FF41651016000218180C8
:10132000C18001810C21418100218181704710B56C
:1013300002460020108A20F470600B884C882343FA
:101340008C882343CC8823431843108210BD00218E
:10135000018041808180C180704721B1828942F43F
:101360000052828104E082894DF6FF731A40828127
:101370007047028B02F47F420283028B0A4302838E
:10138000704721B1828942F40042828103E0828960
:10139000C2F30E028281704721B1828A42F4006258
:1013A000828204E0828A4FF2FF731A408282704781
:1013B000C1F308028280704701468888C0F30800A4
:1013C0007047028A4FF6F0731A400282028A0A437B
:1013D0000282704721B1828942F00202828104E0D8
:1013E00082894FF6FD731A408281704782894FF2DD
:1013F000FF731A40828182890A4382817047028A80
:101400004FF6DF731A400282028A0A430282704753
:1014100021B1028A42F48042028204E0028A4BF641
:10142000FF731A4002827047818941F00101818176
:10143000704721B1828A42F00802828204E0828AE7
:101440004FF6F7731A4082827047028BD2B2028342
:10145000028B42EA01220283704721B1828A42F064
:101460002002828204E0828A4FF6DF731A40828271
:10147000704721B1828A42F01002828204E0828A9F
:101480004FF6EF731A4082827047828A4FF6FB73E1
:101490001A408282828A0A438282704721B1828AFC
:1014A00042F00202828204E0828A4FF6FD731A4003
:1014B000828270471AB1838A0B43838202E0838A57
:1014C0008B4383827047F0B5034600240026002535
:1014D000002040F66A17B94200D100BF1846C1F398
:1014E000421401F01F06012707FA06F5012C01D16D
:1014F0000C3004E0022C01D1103000E014301AB19D
:1015000007682F43076002E00768AF430760F0BD3C
:1015100002460020B1F5007F00D100BF13880B40C8
:101520000BB1012000E00020704701F40072B2F519
:10153000007F00D100BFCA430280704770B50246E9
:10154000002400230025002040F66A16B14200D195
:1015500000BFC1F3421501F01F03012606FA03F391
:10156000012D13D19689334017E00000001001408F
:101570000044004000480040004C00400050004043
:101580000014014000780040007C0040022D02D190
:10159000168A334001E0968A33400C12012606FA7F
:1015A00004F41688344013B10CB1012000E000208F
:1015B00070BD10B50022002340F66A14A14200D18C
:1015C00000BF0A1201249440A3B2DC43048010BD82
:1015D000F948006840F00100F74908600020F6492A
:1015E00008310860F4480068F4490840F24908608E
:1015F000F348091D0860F348EF4984310860F0485A
:101600001038091D0860EC48006820F48020EA4981
:1016100008600020E8490C310860E7498C31086017
:1016200070470021E44A921C1170114608707047FF
:1016300010B501460022002300204A11012A02D1E0
:10164000DD4C236808E0022A03D1DB4C70342368A8
:1016500002E0D94C7434236801F01F020124944045
:101660001C400CB1012000E0002010BD38B5002066
:1016700000900024002500BF3120FFF7D9FF054668
:101680000098401C00900098B0F5A04F01D0002DAC
:10169000F2D03120FFF7CCFF08B1012400E0002494
:1016A000204638BD01460020C34A106820F0F800EB
:1016B00040EAC10010607047C349086070470021CC
:1016C000BD4A703211701170012802D004280AD16D
:1016D00004E00121B84A7032117005E00521B64AD4
:1016E0007032117000E000BF00BF7047B74908605A
:1016F000704770B5049C41EA82150126C6EB53067B
:1017000045EA0645054345EA0465AB4E361D35609E
:1017100070BDAD4908667047820142EA0172A64B6E
:1017200084331A607047A8498866704710B58301F2
:1017300043EA016343EA02739F4C8834236010BD7F
:10174000A14908677047A049C86470470246002055
:10175000994B0833186820F0EC6042EA0103184303
:10176000954B08331860704702460020924B0833AF
:10177000186820F0784042EA010318438E4B083382
:1017800018607047014600208B4A0832106820F02C
:10179000030008431060704787480830006800F075
:1017A0000C00704701460020834A0832106820F080
:1017B000F000084310607047014600207E4A08325E
:1017C000106820F4E0500843106070470146002084
:1017D000794A0832106820F4604040EAC100106085
:1017E0007047F0B5002100220024022500260223C4
:1017F000714F08373F6807F00C0121B1042905D06B
:10180000082937D105E0724F076036E0714F076055
:1018100033E0694F3F1D3F68C7F38056664F3F1D59
:101820003F6807F03F036EB16A4FB7FBF3F7DFF88D
:1018300088C10CF1040CDCF800C0CCF3881C07FB59
:101840000CF40CE0624FB7FBF3F7DFF86CC10CF15E
:10185000040CDCF800C0CCF3881C07FB0CF4564FDA
:101860003F1D3F68C7F301477F1C7D00B4FBF5F7C0
:10187000076002E0564F076000BF00BF4E4F0837B9
:101880003F6807F0F0010909534F7A5C0768D740B9
:101890004760494F08373F6807F4E051890A4E4FC7
:1018A0007A5C4768D7408760434F08373F6807F442
:1018B0006041490B484F7A5C4768D740C760F0BD2C
:1018C000002100F44072B2F5407F0AD13A4A083252
:1018D000116821F4F811414A02401143364A083296
:1018E0001160354A70321268C0F30B031A43324B51
:1018F00070331A607047354944390860704733497E
:10190000403908607047364908607047014600203A
:10191000294A8C32106820F01F004A1E1043264AC4
:101920008C321060704701460020234A8C321068C8
:1019300020F4F8504A1E40EA02201F4A8C32106000
:101940007047014600201C4A8C32106820F4401079
:1019500008431060704701460020174A8C32106817
:1019600020F4400008431060704701460020124AEE
:101970008C32106820F440300843106070471949D9
:101980000860704739B10C4A3032126802430A4B82
:1019900030331A6006E0084A303212688243064B40
:1019A00030331A607047F9B1034A34321268024387
:1019B000014B34331A601CE000380240FFFFF6EAA6
:1019C000103000240030002000004742800E4742C3
:1019D0000024F40000127A00A0000020FFFCFF0F9A
:1019E0005C014742E01147428F4A126882438E4BA6
:1019F0001A60704739B18C4A121D126802438A4B33
:101A00001B1D1A6006E0884A121D12688243864B2D
:101A10001B1D1A60704739B1834A0C3212680243A9
:101A2000814B0C331A6006E07F4A0C321268824305
:101A30007D4B0C331A60704739B17B4A1032126803
:101A40000243794B10331A6006E0774A103212686D
:101A50008243754B10331A60704739B1724A243A89
:101A600012680243704B243B1A6006E06E4A243A27
:101A7000126882436C4B243B1A60704739B16A4A42
:101A8000203A12680243684B203B1A6006E0664A1F
:101A9000203A12688243644B203B1A60704739B188
:101AA000614A1C3A126802435F4B1C3B1A6006E015
:101AB0005D4A1C3A126882435B4B1C3B1A607047BC
:101AC00039B1594A143A12680243574B143B1A6011
:101AD00006E0554A143A12688243534B143B1A608D
:101AE000704739B1504A103A126802434E4B103BCE
:101AF0001A6006E04C4A103A126882434A4B103B87
:101B00001A60704739B1484A1C3212680243464B8A
:101B10001C331A6006E0444A1C3212688243424B6E
:101B20001C331A60704739B13F4A203212680243B1
:101B30003D4B20331A6006E03B4A20321268824354
:101B4000394B20331A60704739B1374A2432126852
:101B50000243354B24331A6006E0334A24321268BC
:101B60008243314B24331A60704739B12E4A2C32EC
:101B7000126802432C4B2C331A6006E02A4A2C329E
:101B800012688243284B2C331A60704739B1264AB9
:101B9000303212680243244B30331A6006E0224A86
:101BA000303212688243204B30331A60704701286C
:101BB00008D11D493C31096841F008011A4A3C32FC
:101BC000116007E018493C31096821F00801164A04
:101BD0003C321160704739B1134A273A12780243F8
:101BE000114B273B1A7006E00F4A273A12788243BE
:101BF0000D4B273B1A7070470B484030006840F08F
:101C00008070094940310860704701460020064A4B
:101C1000283A12680A400AB1012000E0002070470B
:101C200001492639087070473438024010B504461F
:101C3000FE48844208D101210846FFF752FF0021E7
:101C40000120FFF74EFF9DE0B4F1804F08D1012144
:101C50000846FFF735FF00210120FFF731FF91E033
:101C6000F348844208D101210220FFF729FF002117
:101C70000220FFF725FF85E0EE48844208D10121CC
:101C80000420FFF71DFF00210420FFF719FF79E072
:101C9000E948844208D101210820FFF711FF002103
:101CA0000820FFF70DFF6DE0E448844208D10121D0
:101CB0001020FFF705FF00211020FFF701FF61E072
:101CC000DF48844208D101212020FFF7F9FE0021DE
:101CD0002020FFF7F5FE55E0DA48844208D10121C3
:101CE0000220FFF7FEFE00210220FFF7FAFE49E086
:101CF000D548844209D101210804FFF7F2FE0021F2
:101D00004FF48030FFF7EDFE3CE0D048844209D12B
:101D100001214804FFF7E5FE00214FF40030FFF7F2
:101D2000E0FE2FE0CA48844209D101218804FFF770
:101D3000D8FE00214FF48020FFF7D3FE22E0C548F3
:101D4000844208D101214020FFF7BAFE0021402043
:101D5000FFF7B6FE16E0C048844208D1012180207A
:101D6000FFF7AEFE00218020FFF7AAFE0AE0BB4885
:101D7000844207D101218015FFF7A2FE0021A015A2
:101D8000FFF79EFE10BD00220288A84B98420ED09D
:101D9000AC4B98420BD0B0F1804F08D0A44B984286
:101DA00005D0A44B984202D0A34B984204D14FF6E1
:101DB0008F731A404B881A43A04B984207D0A04B10
:101DC000984204D04FF6FF431A400B891A43028011
:101DD0004B68C3620B880385944B984202D0994BA1
:101DE000984201D18B7A03860123838270474FF09A
:101DF000FF31416000210180018141808172704783
:101E00000185828270470A46002101884FF68F7350
:101E1000194011430180704741627047C1627047A9
:101E20000146486A70470146088D704721B1028813
:101E300042F00202028004E002884FF6FD731A406D
:101E40000280704721B1028842F00402028004E05F
:101E500002884FF6FB731A400280704721B1028856
:101E600042F08002028004E002884FF67F731A403D
:101E70000280704702884FF6F7731A40028002888A
:101E80000A430280704702884FF6FF431A400280DF
:101E900002880A430280704721B1028842F00102A1
:101EA000028004E002884FF6FE731A4002807047F9
:101EB00070B5002400220023058C4FF6FE763540D5
:101EC0000584028C8388048B4FF68F752C40B51ED9
:101ED0002C400D882C43751E2A408D892A434D883D
:101EE0002A43524DA84202D0564DA84213D14FF674
:101EF000F7752A40CD892A434FF6FB752A408D8815
:101F00002A434FF6FF652B404FF6FF552B400D8AB5
:101F10002B434D8A2B43838004838D684563028461
:101F200070BD70B5002400220023058C4FF6EF76BB
:101F300035400584028C8388048B48F6FF752C405D
:101F40004FF6FF452C400D884FF6FF7606EA052533
:101F50002C434FF6DF752A408D8906EA05152A4382
:101F60004D8806EA05152A43304DA84202D0354D6A
:101F7000A8421DD14FF67F752A40CD894FF6FF76D6
:101F800006EA05152A434FF6BF752A408D8806EAF2
:101F900005152A434FF6FF352B404FF2FF752B40B6
:101FA0000D8A06EA85052B434D8A06EA85052B43F3
:101FB000838004838D688563028470BD70B50024BE
:101FC00000220023058C4FF6FF6635400584028C05
:101FD0008388848B4FF68F752C404FF6FC752C4010
:101FE0000D882C434FF6FF552A408D894FF6FF761A
:101FF00006EA05252A434D8806EA05252A430B4DA6
:10200000A84202D00F4DA84238D14FF2FF752A40A6
:10201000CD894FF6FF7606EA05252A434FF6FF35B0
:102020002A408D8806EA05252A4319E00000014070
:102030000004004000080040000C00400010004078
:1020400000140040000401400040014000440140F1
:102050000048014000180040001C004000200040E3
:102060004EF6FF752B404DF6FF752B400D8A06EAA4
:1020700005152B434D8A06EA05152B43838084837F
:102080008D68C563028470BD70B5002200230024F2
:10209000058C4EF6FF7635400584038C8488828B50
:1020A00048F6FF752A404FF6FF452A400D884FF647
:1020B000FF7606EA05252A434DF6FF752B408D89EC
:1020C00006EA05352B434D8806EA05352B43FE4DC0
:1020D000A84202D0FD4DA84208D14BF6FF752C4016
:1020E0000D8A4FF6FF7606EA85152C43848082839D
:1020F0008D680564038470BD00210180418081806A
:1021000081608181C18101824182704770B503463F
:10211000002000241846183001258D40ACB21D8CDB
:10212000A5431D8409B108290AD100EB61000568A7
:102130004FF68F76354005600568154305600FE062
:102140000D1FC5F34E052844056848F6FF76354057
:10215000056005684FF6FF7606EA022635430560FE
:1021600070BD4163704781637047C163704701640C
:1021700070470A460021018B4FF68F7319401143B7
:10218000018370470A460021018B48F6FF7319400E
:102190004FF6FF7303EA02231943018370470A468F
:1021A0000021818B4FF68F73194011438183704753
:1021B0000A460021818B48F6FF7319404FF6FF73E2
:1021C00003EA02231943818370470A460021018BE9
:1021D0004FF6F77319401143018370470A460021F7
:1021E000018B4FF2FF7319404FF6FF7303EA02238E
:1021F0001943018370470A460021818B4FF6F7731C
:1022000019401143818370470A460021818B4FF2A8
:10221000FF7319404FF6FF7303EA022319438183CA
:1022200070470A460021018B4FF6FB73194011439A
:10223000018370470A460021018B4FF6FF33194096
:102240004FF6FF7303EA02231943018370470A46DE
:102250000021818B4FF6FB73194011438183704736
:102260000A460021818B4FF6FF3319404FF6FF736A
:1022700003EA02231943818370470A460021018B38
:102280004FF67F7319401143018370470A460021BE
:10229000018BC1F30E014FF6FF7303EA02231943CA
:1022A000018370470A460021818B4FF67F731940E6
:1022B0001143818370470A460021818BC1F30E01CF
:1022C0004FF6FF7303EA02231943818370470A46DE
:1022D0000021018C4FF6FD731940114301847047B2
:1022E0000A460021018C4FF6F7731940114301840F
:1022F00070470A460021018C4FF6DF7319404FF6F4
:10230000FF7303EA02131943018470470A46002150
:10231000018C4FF67F7319404FF6FF7303EA0213E7
:102320001943018470470A460021018C4FF6FF5380
:1023300019404FF6FF7303EA0223194301847047E3
:102340000A460021018C4FF2FF7319404FF6FF73CC
:1023500003EA02231943018470470A460021018CD5
:102360004DF6FF7319404FF6FF7303EA023319432A
:102370000184704730B5002301248C40A3B2048C43
:102380009C430484048C02FA01F5ADB22C4304840E
:1023900030BD30B5002304248C40A3B2048C9C4390
:1023A0000484048C02FA01F5ADB22C43048430BDE0
:1023B000828B4FF2FF331A408283828B4FF6FF737A
:1023C00003EA01231A4382837047F0B50C46154691
:1023D000002100220026078C4EF6FF7C07EA0C073E
:1023E0000784818B028C4FF6FF7707EA043640F6AC
:1023F000FF4739404FF6FF7707EA052739434FF685
:10240000FF7707EA0337394345F6FF773A4046F44A
:1024100080573A4381830284F0BD828B4FF6F37379
:102420001A408283828B0A4382837047F0B50C4640
:102430001546002100220026078C4FF6FF6C07EAA4
:102440000C070784818B028C4FF6FF7707EA04267E
:102450004FF60C7739404FF6FF7707EA03172F4303
:1024600039434FF2FF573A4046F480773A4381832D
:102470000284F0BD028B4FF2FF331A400283028BBD
:102480004FF6FF7303EA01231A4302837047F0B546
:102490000C461546002100220026078C4FF6EF7CE3
:1024A00007EA0C070784018B028C4FF6FF7707EAD7
:1024B000041640F6FF4739404FF6FF7707EA033727
:1024C00039434FF6FF7703E000000140000401406C
:1024D00007EA052739434FF65F773A4046F0100781
:1024E0003A4301830284F0BD028B4FF6F3731A4026
:1024F0000283028B0A4302837047F0B50C461546EF
:1025000000210022068C4FF6FE773E400684018BA8
:10251000028C4FF60C7631407E1C06EA03162E43E1
:1025200031434FF6F576324044F0010632430183E1
:102530000284F0BD70B505460C46208850B9238949
:10254000A28861882846FFF7D8FFE1882846FFF770
:10255000CBFF25E0208804280AD12389A28861883E
:102560002846FFF794FFE1882846FFF783FF17E02E
:10257000208808280AD12389A28861882846FFF785
:1025800055FFE1882846FFF748FF09E02389A28824
:1025900061882846FFF719FFE1882846FFF708FF02
:1025A00070BD002101804180012181800021C18016
:1025B000018170472DE9F04105460C4600260127B0
:1025C000608808B9022600E00026A088012801D111
:1025D000022700E001272088A0B92389A28861880A
:1025E0002846FFF78AFFE1882846FFF77DFF238909
:1025F0003A4631462846FFF74AFFE1882846FFF76A
:1026000039FF13E02389A28861882846FFF73FFF3E
:10261000E1882846FFF72EFF23893A4631462846AF
:10262000FFF76BFFE1882846FFF75EFFBDE8F0810A
:102630000146486B70470146886B70470146C86B7E
:1026400070470146086C70470A884B881A438B888C
:102650001A43CB881A430B891A434B891A438B8937
:102660001A43A0F8442070470021018041808180F6
:10267000C180018141818181704731B1B0F844202E
:1026800042F40042A0F8442005E0B0F84420C2F330
:102690000E02A0F84420704721B1828842F0040263
:1026A000828004E082884FF6FB731A408280704774
:1026B00021B1828842F00102828004E082884FF6D4
:1026C000FE731A40828070471AB183890B4383815D
:1026D00002E083898B438381704781827047024681
:1026E0000020138A0B400BB1012000E0002070474E
:1026F000CA430282704730B50246002000230024FE
:10270000158A05EA0103958905EA010413B10CB1A4
:10271000012000E0002030BDCA430282704741EA38
:102720000203A0F8483070471AB183890B438381B4
:1027300002E083898B438381704721B1828842F014
:102740000802828004E082884FF6F7731A40828084
:10275000704701894FF6F8721140018170470A46AF
:10276000002101894FF68F73194011430181704791
:1027700030B504460D4629462046FFF7F0FF208974
:1027800040F00700208130BD2DE9F04104460D46A0
:1027900016461F46602D06D13B4601223146204693
:1027A000FFF775FE05E03B46012231462046FFF764
:1027B000A4FE29462046FFF7D2FF208940F00700FB
:1027C0002081BDE8F08130B50C4600210189C9B2F5
:1027D0004FF6FF7505EA032515432543294301817B
:1027E00030BD2DE9F04105460E46174698460024B7
:1027F00043463A4631462846FFF7E5FF2C894FF617
:10280000F870044044F007044FF68F70044044F021
:1028100070042C81BDE8F081F0B504460D461646E3
:102820001F463B46324629462046FFF7CCFF20890B
:1028300040F480402081F0BD82884FF68F731A40AB
:10284000828082880A438280704702894FF6F8733B
:102850001A40028102890A430281704702894FF6B9
:102860007F731A40028102890A4302817047F0B5E2
:102870000C4615461E460021002200230189028BCA
:10288000038C4FF6F877394021434FF6FC473A4026
:1028900040F201173A434FF6DD773B404FF6FF77A2
:1028A00007EA06172F433B43018102830384F0BDEF
:1028B00021B1828842F08002828004E082884FF653
:1028C0007F731A4082807047A0F850107047000054
:1028D000FE4A1070704730B1FC49096841F48071BC
:1028E000FA4A116005E0F949096821F48071F74A54
:1028F0001160704730B1F549096841F40071F34A3D
:10290000116005E0F149096821F40071EF4A116096
:10291000704730B1ED49096841F48061EB4A1160BC
:1029200005E0EA49096821F48061E84A11607047CE
:10293000E648006840F40060E44908607047E348F6
:10294000006840F48050E14908607047DF4810306B
:10295000006800F0004028B1DD48DC49091D08602E
:10296000DC4808607047D9481030006840F00040EB
:10297000D6491031086070470920D4490C310968E4
:1029800001F48031B1F5803F01D1012020E0CF4931
:102990000C31096801F0100109B1062018E0CB499B
:1029A0000C31096801F4807109B1022010E0C749B7
:1029B0000C31096801F0EF0109B1072008E0C349B3
:1029C0000C31096801F0020109B1082000E009207A
:1029D000704708B509200090FFF7CEFF009002E095
:1029E000FFF7CAFF00909DF800000128F8D09DF87D
:1029F000000008BD70B504460A460026092502B944
:102A000009E0012A01D1160205E0022A01D11602CD
:102A100001E04FF44076FFF7DCFF0546092D2DD18C
:102A2000AA481030006820F44070A84910310860AE
:102A300008460068304308600846006820F0F80047
:102A400008600846006844F0020108439F491031BD
:102A500008600846006840F480300860FFF7B9FF5E
:102A600005469A481030006820F00200974910315E
:102A700008600846006820F0F8000860284670BD2D
:102A800030B5024600250924FFF7A3FF044602B92A
:102A900009E0012A01D1150205E0022A01D115023F
:102AA00001E04FF44075092C20D1884810300068AF
:102AB00020F44070854910310860084600682843BA
:102AC00008600846006840F0040008600846006896
:102AD00040F480300860FFF77CFF04467B481030EC
:102AE000006820F00400794910310860204630BDAC
:102AF00030B5024600250924FFF76BFF044602B9F2
:102B000009E0012A01D1150205E0022A01D11502CE
:102B100001E04FF44075092C20D16C48103000685A
:102B200020F4407069491031086008460068284365
:102B300008600846006840F0040008600846006825
:102B400040F480300860FFF744FF04465F481030CF
:102B5000006820F004005D4910310860204630BD57
:102B600030B5024600250924FFF733FF044602B9B9
:102B700009E0012A01D1150205E0022A01D115025E
:102B800001E04FF44075092C20D150481030006806
:102B900020F440704D491031086008460068284311
:102BA00008600846006840F4004008600846006875
:102BB00040F480300860FFF70CFF044643481030B3
:102BC000006820F40040414910310860204630BDC3
:102BD00070B5064614461D460922FFF7FAFE024666
:102BE000092A1ED139481030006820F44070374956
:102BF000103108600846006840F4407008600846DC
:102C0000006840F00100086034607560FFF7E1FE85
:102C100002462E481030006820F001002B49103188
:102C20000860104670BD30B502460C460925FFF716
:102C3000D0FE0546092D1DD124481030006820F42F
:102C400040702249103108600846006840F4007066
:102C500008600846006840F0010008601460FFF753
:102C6000B8FE054619481030006820F001001749E9
:102C700010310860284630BD30B502460C460925A3
:102C8000FFF7A7FE0546092D1DD11048103000683A
:102C900020F440700D49103108600846006840F487
:102CA000807008600846006840F0010008601480E9
:102CB000FFF78FFE054605481030006820F0010040
:102CC000024910310860284630BD0000003C024037
:102CD00023016745AB89EFCD30B502460C46092587
:102CE000FFF777FE0546092D17D19B48006820F4B1
:102CF0004070994908600846006808600846006806
:102D000040F0010008601470FFF763FE054692482A
:102D1000006820F0010090490860284630BD8E48C8
:102D2000001D006800F0010028B18C488A4908396C
:102D300008608B48086070478748001D006840F0B5
:102D400001008549091D0860704730B502460C46F0
:102D50000925FFF73EFE0546092D10D13CB17E48FE
:102D6000801D008890437C49891D088007E07A48CF
:102D7000801D008891B208437749891D088030BDC5
:102D800030B502460C460925FFF723FE0546092DFE
:102D900010D13CB170480A30008890436E490A3126
:102DA000088007E06C480A30008891B208436A49FD
:102DB0000A31088030BDFF21674AD21D127802F027
:102DC0007F0140EA0102644BDB1D1A70704730B589
:102DD00002460C460925FFF7FCFD0546092D10D1DA
:102DE00044B15D48801D008891B208435A49891D4D
:102DF000088006E05848801D008890435649891D88
:102E0000088030BD30B502460C460925FFF7E1FDCC
:102E10000546092D10D144B14F480A30008891B2BF
:102E200008434D490A31088006E04B480A300088C3
:102E3000904349490A31088030BD10B50246092443
:102E4000FFF7C7FD0446092C02D14348401D02701C
:102E500010BDF0B504460D46FF260927FFF7B9FD62
:102E60000746092F0BD13C48001D007800F00F06E3
:102E700045EA0600104320433749091D0870F0BD9C
:102E80003549091D097821F01001334A121D1170CE
:102E9000114609780143117070472F49091D0978BF
:102EA00021F00C012C4A121D1170114609780143C2
:102EB0001170704700B509222748001D007840F0C6
:102EC00002002549091D0870FFF783FD02461046E0
:102ED00000BD2148001D0068C0F3471070471E4820
:102EE000801D008870471C480A30008870471A48C7
:102EF000801D0088704718480A30008870470020FD
:102F00001549491D0978AA2901D0012000E00020B7
:102F100070471148001D007800F00C00704729B17F
:102F20000D4A126802430C4B1A6004E00A4A126808
:102F30008243094B1A60704701460020064A121F5F
:102F400012680A400AB1012000E0002070470249DF
:102F5000091F086070470000103C02403B2A190816
:102F60007F6E5D4C10B5034609E013F8014B84EA0F
:102F70002220FE4C34F8100080EA022082B2081EA3
:102F8000A1F10101F1D1104610BD30B50246134642
:102F9000002004E013F8014B60404C1EA1B2002950
:102FA000F8D130BD01460806000C40EA11207047F8
:102FB0000146080601F47F4240EA022001F47F0244
:102FC00040EA122040EA11607047E9490868096840
:102FD00001F0004159B9E649096801F0804131B971
:102FE000E349096801F0005109B9E14909687047EE
:102FF000012080F3138800BF00BFBFF34F8FDD486F
:10300000006800F4E060DC490843001DD94908600D
:10301000BFF34F8F00BF00BFFEE710B54FF6FF7440
:10302000D648007B0006D54A928902F47F4240EAE6
:103030000220D24AD26802F47F0240EA1220CF4A2C
:10304000D26840EA12612246CD48FFF78BFF044662
:10305000CA48007C0006C949098A01F47F4140EA58
:103060000120C649096901F47F0140EA1120C349E2
:10307000096940EA1160A04201D1002010BD4FF063
:10308000FF30FBE710B50446BE480068401CBD4950
:10309000086008460068BC490968884209DDBB48E9
:1030A0000078012803D10020FDF7A0FB01E0FFF725
:1030B0009FFF10BD10B50024B548B6490860002038
:1030C000B34948800870084600210A6842604A688F
:1030D000826009898181B0480078012815D1AF4804
:1030E0008478C07800EB042084B2601EA849488030
:1030F000AA480079087008464288A849491D001D61
:1031000000F098FA0020A4490870A248006810BD99
:103110002DE9F04106460F4614460025601E1FFAB1
:1031200080F8EB209E49087090204870200A887033
:10313000CC700846067104E0795D681D984A115408
:103140006D1C4545F8DBA01C81B29548801CFFF73B
:103150001CFF211D924A5054601DC1B21046FDF75C
:10316000FFFC0020BDE8F08108B50020009002229D
:1031700069460320FFF7CCFF08BD08B58948006801
:103180000090022269460720FFF7C2FF08BD30B554
:10319000A1B00446251D8021784800F0C2FA8022A3
:1031A000211D764800F046FA802201A97E48FDF7ED
:1031B0002DFC0C227D497E48FDF728FC0C227B4922
:1031C0006E48203000F00AFA10B1032021B030BD63
:1031D0002078042801D00120F8E76088802802D0F8
:1031E0004FF0FF30F2E70498E96888420CD1059867
:1031F0002969884208D12C2205F1200109A800F094
:10320000EDF908B90220E1E780225C496648FDF744
:10321000CBFB66490E3159480E30026A0A60426A99
:103220004A60806A886040220E396148FDF7BCFB25
:103230000220CBE71CB50020009001905D4800689B
:10324000FFF7B6FE01905C480068FFF7B1FE009002
:10325000092269460520FFF75BFF1CBD70B50546D6
:1032600000262C1D20790006A18801F47F4140EA48
:103270000120616801F47F0140EA1120616840EAA1
:103280001166324604F108014C4800F0D3F9287861
:10329000062801D0022070BD6988464800680830C1
:1032A000814202D94FF0FF30F5E7207800062188EF
:1032B00001F47F4140EA0120216801F47F0140EAE6
:1032C0001120216840EA11603B49096888420CD10D
:1032D000394909682A4A881832463849FDF764FB9B
:1032E000354800683044344908602448007B0006B3
:1032F0002249898901F47F4140EA01201F49C968B8
:1033000001F47F0140EA11201C49C96840EA1160BC
:1033100029490968884201D80020BCE70220BAE7A1
:1033200070B5002400250026CCE0FDF7F4F9244810
:10333000006898B122480068401E2149086008468C
:1033400000682049884201D1FDF749FA1C4800680D
:1033500020B91D48006808B1FDF741FA08211B4853
:10336000FDF7AAFEA0BB1748643032E038380008E9
:10337000743802400CED00E00000FA05381B002014
:1033800000000108C4020020C0020020C802002082
:10339000D8230020CC020020300000201813002089
:1033A000D0020020383A000800800008B001002058
:1033B00000C00008F0020020EC020020B81B002032
:1033C0000403002040420F00080240420004024073
:1033D00004E0784908600120774908707748007850
:1033E00005286DD2DFE800F0030D62373D00FFF7DE
:1033F000BBFE18B901207149087001E0FFF7F8FD24
:103400005EE0FFF757FE0546688820B94FF49670D6
:10341000FFF738FE56E00020694908602846FFF7AC
:10342000B6FE04460025012C00D14BE0032C03D14D
:10343000FFF7A3FEFFF7DCFDB4F1FF3F01D1FFF77B
:10344000D7FD022C03D103205C49087002E0022062
:103450005A49087034E0FFF7EDFE04205749087020
:103460002EE0FFF727FE0546688820B94FF4FA7072
:10347000FFF708FE26E00020514908600024284696
:10348000FFF7ECFE04460025022C03D103204B4934
:10349000087017E0B4F1FF3F01D1FFF7A9FD012C3F
:1034A00000D10FE002204549087009E0FFF7B5FDA3
:1034B00008B9002070BDFDF7D7FA00203F49087019
:1034C00000BF00BF31E710B54FF6FF740C223D4935
:1034D0003D48FDF79BFA80223C493D48FDF796FAAE
:1034E0003A48C068401C10B94FF0FF3010BD0C22A4
:1034F00034493648203000F071F810B14FF0FF30F9
:10350000F4E73248007B0006304A928902F47F4299
:1035100040EA02202D4AD26802F47F0240EA1220DB
:103520002A4AD26840EA126122462A48FFF71AFD69
:1035300004462648007C00062449098A01F47F419C
:1035400040EA01202149096901F47F0140EA112084
:103550001E49096940EA1160A04201D10020C5E777
:103560004FF0FF30C2E710B5FFF7ADFFB0F1FF3FFE
:1035700007D1FFF7D5FEB0F1FF3F01D1FFF738FDCE
:1035800000BF002240F225511348FDF79CFF0021A7
:103590001148FDF7E2FE0F4840686FF30F000D4938
:1035A000884202D1FDF76DFA01E0FFF721FD00200E
:1035B00010BD000004030020C8020020FD0200200E
:1035C000C4020020B001002000C000087C2C0020B4
:1035D00000800008000001080010014040EA0103DB
:1035E00010B59B070FD1042A0DD310C808C9121FAC
:1035F0009C42F8D020BA19BA884201D9012010BDE6
:103600004FF0FF3010BD1AB1D30703D0521C07E0B2
:10361000002010BD10F8013B11F8014B1B1B07D116
:1036200010F8013B11F8014B1B1B01D1921EF1D187
:10363000184610BD032A40F2308010F0030C00F051
:10364000158011F8013BBCF1020F624498BF11F8DC
:1036500001CB00F8013B38BF11F8013BA2F1040295
:1036600098BF00F801CB38BF00F8013B11F003030D
:1036700000F02580083AC0F0088051F8043B083A71
:1036800051F804CBA0E80810F5E7121D5CBF51F813
:10369000043B40F8043BAFF30080D20724BF11F88D
:1036A000013B11F801CB48BF11F8012B24BF00F8F2
:1036B000013B00F801CB48BF00F8012B704710B563
:1036C000203AC0F00B80B1E81850203AA0E818501A
:1036D000B1E81850A0E81850BFF4F5AF5FEA027CDB
:1036E00024BFB1E81850A0E8185044BF18C918C04A
:1036F000BDE810405FEA827C24BF51F8043B40F8EB
:10370000043B08BF7047D20728BF31F8023B48BFCF
:1037100011F8012B28BF20F8023B48BF00F8012B0D
:1037200070474FF000020429C0F0128010F0030C23
:1037300000F01B80CCF1040CBCF1020F18BF00F8A4
:10374000012BA8BF20F8022BA1EB0C0100F00DB853
:103750005FEAC17C24BF00F8012B00F8012B48BFB1
:1037600000F8012B70474FF0000200B51346944655
:103770009646203922BFA0E80C50A0E80C50B1F1C9
:103780002001BFF4F7AF090728BFA0E80C5048BFDD
:103790000CC05DF804EB890028BF40F8042B08BF7B
:1037A000704748BF20F8022B11F0804F18BF00F877
:1037B000012B7047704770477047754600F02CF832
:1037C000AE4605006946534620F00700854618B00E
:1037D00020B5FDF707FBBDE820404FF000064FF095
:1037E00000074FF000084FF0000B21F00701AC4636
:1037F000ACE8C009ACE8C009ACE8C009ACE8C00955
:103800008D46704710B50446AFF300802046BDE8F2
:103810001040FCF722BD000000487047FC2C00203F
:1038200001491820ABBEFEE72600020070474FF0AA
:103830004070E1EE100A7047000021104220633012
:103840008440A550C660E770088129914AA16BB1F8
:103850008CC1ADD1CEE1EFF13112100273325222A0
:10386000B5529442F772D662399318837BB35AA348
:10387000BDD39CC3FFF3DEE3622443342004011470
:10388000E664C774A44485546AA54BB52885099598
:10389000EEE5CFF5ACC58DD5533672261116300640
:1038A000D776F6669556B4465BB77AA719973887E8
:1038B000DFF7FEE79DD7BCC7C448E5588668A77800
:1038C0004008611802282338CCC9EDD98EE9AFF938
:1038D000488969990AA92BB9F55AD44AB77A966AE0
:1038E000711A500A333A122AFDDBDCCBBFFB9EEB88
:1038F000799B588B3BBB1AABA66C877CE44CC55CB0
:10390000222C033C600C411CAEED8FFDECCDCDDDD7
:103910002AAD0BBD688D499D977EB66ED55EF44E7F
:10392000133E322E511E700E9FFFBEEFDDDFFCCF27
:103930001BBF3AAF599F788F8891A981CAB1EBA17B
:103940000CD12DC14EF16FE18010A100C230E320F7
:103950000450254046706760B9839893FBA3DAB39F
:103960003DC31CD37FE35EF3B1029012F322D23247
:103970003542145277625672EAB5CBA5A89589856F
:103980006EF54FE52CD50DC5E234C324A014810497
:103990006674476424540544DBA7FAB79987B8973F
:1039A0005FE77EF71DC73CD7D326F2369106B016E7
:1039B00057667676154634564CD96DC90EF92FE9FF
:1039C000C899E9898AB9ABA9445865480678276837
:1039D000C018E1088238A3287DCB5CDB3FEB1EFBDF
:1039E000F98BD89BBBAB9ABB754A545A376A167A87
:1039F000F10AD01AB32A923A2EFD0FED6CDD4DCDAF
:103A0000AABD8BADE89DC98D267C076C645C454CD6
:103A1000A23C832CE01CC10C1FEF3EFF5DCF7CDF7E
:103A20009BAFBABFD98FF89F176E367E554E745E26
:103A3000932EB23ED10EF01E010000005C3A000849
:103A40000000002018030000C4010008903A00089C
:103A500018030020483600002002000891847A03F1
:103A60000A00091901020304060708090362EB9022
:103A70007FEB900202010190699402FFFF02FFFFB9
:103A8000C123FFFFD4C0C62D031FEB900226080000
:040000050800018965
:00000001FF
